04:39:12.504090 IP debian.39600 > nuq04s29-in-f10.1e100.net.https: Flags [.], ack 2731309960, win 317, options [nop,nop,TS val 86782880 ecr 1568102267], length 0
	0x0000:  4500 0034 84b7 4000 4006 5b41 c0a8 01de  E..4..@.@.[A....
	0x0010:  d83a c00a 9ab0 01bb 1bec 2daa a2cc 7b88  .:........-...{.
	0x0020:  8010 013d 289f 0000 0101 080a 052c 33a0  ...=(........,3.
	0x0030:  5d77 577b                                ]wW{
04:39:12.532478 IP nuq04s29-in-f10.1e100.net.https > debian.39600: Flags [.], ack 1, win 358, options [nop,nop,TS val 1568147323 ecr 86749086], length 0
	0x0000:  4500 0034 c625 0000 3706 62d3 d83a c00a  E..4.%..7.b..:..
	0x0010:  c0a8 01de 01bb 9ab0 a2cc 7b88 1bec 2dab  ..........{...-.
	0x0020:  8010 0166 fc76 0000 0101 080a 5d78 077b  ...f.v......]x.{
	0x0030:  052b af9e                                .+..
04:39:12.947784 IP live.github.com.https > debian.47845: Flags [P.], seq 872906783:872906814, ack 3250344086, win 31, options [nop,nop,TS val 2580421453 ecr 86767956], length 31
	0x0000:  4500 0053 b476 4000 3706 1032 c01e fc57  E..S.v@.7..2...W
	0x0010:  c0a8 01de 01bb bae5 3407 801f c1bc 5096  ........4.....P.
	0x0020:  8018 001f 0df0 0000 0101 080a 99ce 1b4d  ...............M
	0x0030:  052b f954 1703 0300 1a82 93b7 4a43 1ec5  .+.T........JC..
	0x0040:  e023 a2e1 8cbf 3a8c acb4 aaf6 1c63 d893  .#....:......c..
	0x0050:  bb9b 2f                                  ../
04:39:12.947913 IP debian.47845 > live.github.com.https: Flags [P.], seq 1:36, ack 31, win 298, options [nop,nop,TS val 86782990 ecr 2580421453], length 35
	0x0000:  4500 0057 351a 4000 4006 868a c0a8 01de  E..W5.@.@.......
	0x0010:  c01e fc57 bae5 01bb c1bc 5096 3407 803e  ...W......P.4..>
	0x0020:  8018 012a d618 0000 0101 080a 052c 340e  ...*.........,4.
	0x0030:  99ce 1b4d 1703 0300 1e00 0000 0000 0000  ...M............
	0x0040:  cb3b 6e6d 44b3 55b9 9452 0dc1 b2cf fbb2  .;nmD.U..R......
	0x0050:  0ba0 0c17 295d 11                        ....)].
04:39:12.956006 IP pf-in-f189.1e100.net.https > debian.36703: UDP, length 41
	0x0000:  4500 0045 327c 0000 2b11 2226 adc2 cabd  E..E2|..+."&....
	0x0010:  c0a8 01de 01bb 8f5f 0031 c325 005a 9b73  ......._.1.%.Z.s
	0x0020:  f28e a82c f1ba 1af8 d1a6 22af fb57 5e9d  ...,......"..W^.
	0x0030:  eafd 7392 451c d9b2 b72c 36b6 d849 d669  ..s.E....,6..I.i
	0x0040:  9d43 0084 27                             .C..'
04:39:12.957509 IP pf-in-f189.1e100.net.https > debian.36703: UDP, length 19
	0x0000:  4500 002f 327d 0000 2b11 223b adc2 cabd  E../2}..+.";....
	0x0010:  c0a8 01de 01bb 8f5f 001b 1966 005b 41b4  ......._...f.[A.
	0x0020:  f116 a40c d8e4 3ded 6d81 3f43 af66 d0    ......=.m.?C.f.
04:39:12.957648 IP debian.36703 > pf-in-f189.1e100.net.https: UDP, length 46
	0x0000:  4500 004a 297d 4000 4011 d61f c0a8 01de  E..J)}@.@.......
	0x0010:  adc2 cabd 8f5f 01bb 0036 beeb 1cf3 fe23  ....._...6.....#
	0x0020:  1b3b ebac e7cf 040e 3844 2584 aa52 6610  .;......8D%..Rf.
	0x0030:  6dc7 71ef db2a 8820 5557 617f 45ad f906  m.q..*..UWa.E...
	0x0040:  ab6c 2a34 317d 7069 4858                 .l*41}piHX
04:39:12.960620 IP debian.36703 > pf-in-f189.1e100.net.https: UDP, length 277
	0x0000:  4500 0131 297e 4000 4011 d537 c0a8 01de  E..1)~@.@..7....
	0x0010:  adc2 cabd 8f5f 01bb 011d 6518 1cf3 fe23  ....._....e....#
	0x0020:  1b3b ebac e7d0 0491 2b3e a138 ddad 0080  .;......+>.8....
	0x0030:  545d c7b9 b2fc fca5 b254 0a3a f291 4508  T].......T.:..E.
	0x0040:  47da 33b2 dd9b 47a5 3754 60bf d44b 1c05  G.3...G.7T`..K..
	0x0050:  2a1b 4596 9537 ffd7 e560 9ad9 509e d144  *.E..7...`..P..D
	0x0060:  faf9 b235 5afc 76fd b58b 1821 525b b5c2  ...5Z.v....!R[..
	0x0070:  f71d d841 9c2c cd96 ef61 be71 e53d 64da  ...A.,...a.q.=d.
	0x0080:  9d75 c3d9 0112 0996 49d5 ac7f f6fc b203  .u......I.......
	0x0090:  c9b1 90b9 298b b0d7 b56d d09d 83f8 d2ed  ....)....m......
	0x00a0:  12ba b103 8e2c 3982 ef29 5e53 da56 faab  .....,9..)^S.V..
	0x00b0:  b222 2037 b093 d579 bf40 af8e 0ce7 79bd  .".7...y.@....y.
	0x00c0:  7438 7796 cf2d f981 69e4 d9c5 8460 179f  t8w..-..i....`..
	0x00d0:  402f 22ca 0e4f a7ab 1e41 a4e9 5c2d 3dcb  @/"..O...A..\-=.
	0x00e0:  817a eca4 11b4 148a 584b eb51 52e3 cbf3  .z......XK.QR...
	0x00f0:  13a8 f46d dda7 be1f 3650 9268 8821 bb69  ...m....6P.h.!.i
	0x0100:  bcfa 8f02 0e5d 9a7e b75d 2855 485e eaaa  .....].~.](UH^..
	0x0110:  0a8e 7230 27c0 5024 5c59 7685 de91 2a60  ..r0'.P$\Yv...*`
	0x0120:  b121 f6de fb10 4531 271b 99b7 c095 fbbf  .!....E1'.......
	0x0130:  f6                                       .
04:39:12.994566 IP debian.55906 > pc-in-f189.1e100.net.https: UDP, length 25
	0x0000:  4500 0035 655d 4000 4011 ab9a c0a8 01de  E..5e]@.@.......
	0x0010:  4a7d 1cbd da62 01bb 0021 e305 1c05 3f91  J}...b...!....?.
	0x0020:  7d10 3bf8 adbb 0447 3ca2 7c3e db6a edf5  }.;....G<.|>.j..
	0x0030:  cd1b 19c8 e7                             .....
04:39:13.009647 IP pf-in-f189.1e100.net.https > debian.36703: UDP, length 80
	0x0000:  4500 006c 32a6 0000 2b11 21d5 adc2 cabd  E..l2...+.!.....
	0x0010:  c0a8 01de 01bb 8f5f 0058 d4fe 005c 65cb  ......._.X...\e.
	0x0020:  8d9e a11d 8a77 2ddd df97 059d 4979 4844  .....w-.....IyHD
	0x0030:  0396 8b05 8f09 b3e2 dfd4 5f8a dd51 f316  .........._..Q..
	0x0040:  cfcd dab5 c44a 7788 032a 6878 e85e 0104  .....Jw..*hx.^..
	0x0050:  3a40 0f02 5cd9 524f adeb ff7d 6e5e c00e  :@..\.RO...}n^..
	0x0060:  03ff 9b0b 0753 226f 1c0e c42a            .....S"o...*
04:39:13.009656 IP pf-in-f189.1e100.net.https > debian.36703: UDP, length 39
	0x0000:  4500 0043 32a7 0000 2b11 21fd adc2 cabd  E..C2...+.!.....
	0x0010:  c0a8 01de 01bb 8f5f 002f 7617 005d 2d4f  ......._./v..]-O
	0x0020:  a137 bf3d cd1e a6af 9c06 ade9 2e3d 16b5  .7.=.........=..
	0x0030:  aa10 9977 3e44 e42c c963 6159 3e05 11f2  ...w>D.,.caY>...
	0x0040:  d3d6 78                                  ..x
04:39:13.009774 IP debian.36703 > pf-in-f189.1e100.net.https: UDP, length 43
	0x0000:  4500 0047 2986 4000 4011 d619 c0a8 01de  E..G).@.@.......
	0x0010:  adc2 cabd 8f5f 01bb 0033 65f7 1cf3 fe23  ....._...3e....#
	0x0020:  1b3b ebac e7d1 041f f1fa cd67 e146 dda0  .;.........g.F..
	0x0030:  4e1d ee1f fe85 262c 6b2d dab2 cbff bc20  N.....&,k-......
	0x0040:  2096 748d a320 da                        ..t....
04:39:13.031018 IP live.github.com.https > debian.47845: Flags [.], ack 36, win 31, options [nop,nop,TS val 2580421473 ecr 86782990], length 0
	0x0000:  4500 0034 b477 4000 3706 1050 c01e fc57  E..4.w@.7..P...W
	0x0010:  c0a8 01de 01bb bae5 3407 803e c1bc 50b9  ........4..>..P.
	0x0020:  8010 001f 85db 0000 0101 080a 99ce 1b61  ...............a
	0x0030:  052c 340e                                .,4.
04:39:13.057704 IP pc-in-f189.1e100.net.https > debian.55906: UDP, length 33
	0x0000:  4500 003d 23a7 0000 2a11 4349 4a7d 1cbd  E..=#...*.CIJ}..
	0x0010:  c0a8 01de 01bb da62 0029 0bd3 0047 e813  .......b.)...G..
	0x0020:  c7cc 202a 9d70 be97 4e2e 133f 3799 67af  ...*.p..N..?7.g.
	0x0030:  97c8 93e6 4f70 3388 d887 56aa e3         ....Op3...V..
04:39:13.213338 IP debian.56549 > 192.168.1.1.domain: 35380+ A? www.google.com. (32)
	0x0000:  4500 003c bd94 4000 4011 f8ec c0a8 01de  E..<..@.@.......
	0x0010:  c0a8 0101 dce5 0035 0028 8577 8a34 0100  .......5.(.w.4..
	0x0020:  0001 0000 0000 0000 0377 7777 0667 6f6f  .........www.goo
	0x0030:  676c 6503 636f 6d00 0001 0001            gle.com.....
04:39:13.225503 IP 192.168.1.1.domain > debian.56549: 35380 6/0/0 A 173.194.202.147, A 173.194.202.99, A 173.194.202.103, A 173.194.202.104, A 173.194.202.106, A 173.194.202.105 (128)
	0x0000:  4500 009c 0000 4000 4011 b621 c0a8 0101  E.....@.@..!....
	0x0010:  c0a8 01de 0035 dce5 0088 adb3 8a34 8180  .....5.......4..
	0x0020:  0001 0006 0000 0000 0377 7777 0667 6f6f  .........www.goo
	0x0030:  676c 6503 636f 6d00 0001 0001 c00c 0001  gle.com.........
	0x0040:  0001 0000 00d0 0004 adc2 ca93 c00c 0001  ................
	0x0050:  0001 0000 00d0 0004 adc2 ca63 c00c 0001  ...........c....
	0x0060:  0001 0000 00d0 0004 adc2 ca67 c00c 0001  ...........g....
	0x0070:  0001 0000 00d0 0004 adc2 ca68 c00c 0001  ...........h....
	0x0080:  0001 0000 00d0 0004 adc2 ca6a c00c 0001  ...........j....
	0x0090:  0001 0000 00d0 0004 adc2 ca69            ...........i
04:39:13.225662 IP debian > pf-in-f147.1e100.net: ICMP echo request, id 11786, seq 1, length 64
	0x0000:  4500 0054 8f61 4000 4001 706b c0a8 01de  E..T.a@.@.pk....
	0x0010:  adc2 ca93 0800 908f 2e0a 0001 61e0 4657  ............a.FW
	0x0020:  0000 0000 7771 0300 0000 0000 0123 4567  ....wq.......#Eg
	0x0030:  89ab cdef 0123 4567 89ab cdef 0123 4567  .....#Eg.....#Eg
	0x0040:  89ab cdef 0123 4567 89ab cdef 0123 4567  .....#Eg.....#Eg
	0x0050:  89ab cdef                                ....
04:39:13.269253 IP pf-in-f147.1e100.net > debian: ICMP echo reply, id 11786, seq 1, length 64
	0x0000:  4500 0054 0000 0000 2b01 54cd adc2 ca93  E..T....+.T.....
	0x0010:  c0a8 01de 0000 988f 2e0a 0001 61e0 4657  ............a.FW
	0x0020:  0000 0000 7771 0300 0000 0000 0123 4567  ....wq.......#Eg
	0x0030:  89ab cdef 0123 4567 89ab cdef 0123 4567  .....#Eg.....#Eg
	0x0040:  89ab cdef 0123 4567 89ab cdef 0123 4567  .....#Eg.....#Eg
	0x0050:  89ab cdef                                ....
04:39:13.269435 IP debian.50388 > 192.168.1.1.domain: 16241+ PTR? 147.202.194.173.in-addr.arpa. (46)
	0x0000:  4500 004a bd97 4000 4011 f8db c0a8 01de  E..J..@.@.......
	0x0010:  c0a8 0101 c4d4 0035 0036 80f4 3f71 0100  .......5.6..?q..
	0x0020:  0001 0000 0000 0000 0331 3437 0332 3032  .........147.202
	0x0030:  0331 3934 0331 3733 0769 6e2d 6164 6472  .194.173.in-addr
	0x0040:  0461 7270 6100 000c 0001                 .arpa.....
04:39:13.272036 IP debian.55517 > 192.229.163.25.https: Flags [.], ack 16166770, win 598, options [nop,nop,TS val 86783072 ecr 3745513944], length 0
	0x0000:  4500 0034 f5a8 4000 4006 1e96 c0a8 01de  E..4..@.@.......
	0x0010:  c0e5 a319 d8dd 01bb 9459 651b 00f6 af72  .........Ye....r
	0x0020:  8010 0256 aec6 0000 0101 080a 052c 3460  ...V.........,4`
	0x0030:  df40 01d8                                .@..
04:39:13.272055 IP debian.60825 > nuq05s01-in-f13.1e100.net.https: Flags [.], ack 3362408492, win 237, options [nop,nop,TS val 86783072 ecr 3693641502], length 0
	0x0000:  4500 0034 4563 4000 4006 8214 c0a8 01de  E..4Ec@.@.......
	0x0010:  acd9 03ed ed99 01bb 869d f911 c86a 482c  .............jH,
	0x0020:  8010 00ed ee14 0000 0101 080a 052c 3460  .............,4`
	0x0030:  dc28 7f1e                                .(..
04:39:13.285671 IP 192.168.1.1.domain > debian.50388: 16241 1/0/0 PTR pf-in-f147.1e100.net. (80)
	0x0000:  4500 006c 0000 4000 4011 b651 c0a8 0101  E..l..@.@..Q....
	0x0010:  c0a8 01de 0035 c4d4 0058 4d18 3f71 8180  .....5...XM.?q..
	0x0020:  0001 0001 0000 0000 0331 3437 0332 3032  .........147.202
	0x0030:  0331 3934 0331 3733 0769 6e2d 6164 6472  .194.173.in-addr
	0x0040:  0461 7270 6100 000c 0001 c00c 000c 0001  .arpa...........
	0x0050:  0000 0e3d 0016 0a70 662d 696e 2d66 3134  ...=...pf-in-f14
	0x0060:  3705 3165 3130 3003 6e65 7400            7.1e100.net.
04:39:13.289413 IP 192.229.163.25.https > debian.55517: Flags [.], ack 1, win 294, options [nop,nop,TS val 3745525209 ecr 86749280], length 0
	0x0000:  4500 0034 f6de 4000 3906 2460 c0e5 a319  E..4..@.9.$`....
	0x0010:  c0a8 01de 01bb d8dd 00f6 af72 9459 651c  ...........r.Ye.
	0x0020:  8010 0126 07f5 0000 0101 080a df40 2dd9  ...&.........@-.
	0x0030:  052b b060                                .+.`
04:39:13.296482 IP nuq05s01-in-f13.1e100.net.https > debian.60825: Flags [.], ack 1, win 358, options [nop,nop,TS val 3693686561 ecr 86749272], length 0
	0x0000:  4500 0034 3b52 0000 3706 d525 acd9 03ed  E..4;R..7..%....
	0x0010:  c0a8 01de 01bb ed99 c86a 482c 869d f912  .........jH,....
	0x0020:  8010 0166 c19f 0000 0101 080a dc29 2f21  ...f.........)/!
	0x0030:  052b b058                                .+.X
04:39:13.503142 IP debian.56277 > 192.168.1.1.domain: 42431+ PTR? 10.192.58.216.in-addr.arpa. (44)
	0x0000:  4500 0048 bda6 4000 4011 f8ce c0a8 01de  E..H..@.@.......
	0x0010:  c0a8 0101 dbd5 0035 0034 e62e a5bf 0100  .......5.4......
	0x0020:  0001 0000 0000 0000 0231 3003 3139 3202  .........10.192.
	0x0030:  3538 0332 3136 0769 6e2d 6164 6472 0461  58.216.in-addr.a
	0x0040:  7270 6100 000c 0001                      rpa.....
04:39:13.517714 IP 192.168.1.1.domain > debian.56277: 42431 2/0/0 PTR nuq04s29-in-f10.1e100.net., PTR nuq04s29-in-f10.1e100.net. (97)
	0x0000:  4500 007d 0000 4000 4011 b640 c0a8 0101  E..}..@.@..@....
	0x0010:  c0a8 01de 0035 dbd5 0069 e763 a5bf 8180  .....5...i.c....
	0x0020:  0001 0002 0000 0000 0231 3003 3139 3202  .........10.192.
	0x0030:  3538 0332 3136 0769 6e2d 6164 6472 0461  58.216.in-addr.a
	0x0040:  7270 6100 000c 0001 c00c 000c 0001 0000  rpa.............
	0x0050:  1c20 001b 0f6e 7571 3034 7332 392d 696e  .....nuq04s29-in
	0x0060:  2d66 3130 0531 6531 3030 036e 6574 00c0  -f10.1e100.net..
	0x0070:  0c00 0c00 0100 001c 2000 02c0 38         ............8
04:39:13.517937 IP debian.38138 > 192.168.1.1.domain: 63170+ PTR? 87.252.30.192.in-addr.arpa. (44)
	0x0000:  4500 0048 bda9 4000 4011 f8cb c0a8 01de  E..H..@.@.......
	0x0010:  c0a8 0101 94fa 0035 0034 ce10 f6c2 0100  .......5.4......
	0x0020:  0001 0000 0000 0000 0238 3703 3235 3202  .........87.252.
	0x0030:  3330 0331 3932 0769 6e2d 6164 6472 0461  30.192.in-addr.a
	0x0040:  7270 6100 000c 0001                      rpa.....
04:39:13.528060 IP debian.43226 > sfo03s01-in-f8.1e100.net.https: Flags [.], ack 1313372242, win 312, options [nop,nop,TS val 86783136 ecr 3664199096], length 0
	0x0000:  4500 0034 6852 4000 4006 74e8 c0a8 01de  E..4hR@.@.t.....
	0x0010:  d83a c2c8 a8da 01bb cae3 ca41 4e48 7852  .:.........ANHxR
	0x0020:  8010 0138 bfb9 0000 0101 080a 052c 34a0  ...8.........,4.
	0x0030:  da67 3db8                                .g=.
04:39:13.546417 IP sfo03s01-in-f8.1e100.net.https > debian.43226: Flags [.], ack 1, win 350, options [nop,nop,TS val 3664244156 ecr 86749344], length 0
	0x0000:  4500 0034 5787 0000 3606 cfb3 d83a c2c8  E..4W...6....:..
	0x0010:  c0a8 01de 01bb a8da 4e48 7852 cae3 ca42  ........NHxR...B
	0x0020:  8010 015e 938e 0000 0101 080a da67 edbc  ...^.........g..
	0x0030:  052b b0a0                                .+..
04:39:13.548720 IP 192.168.1.1.domain > debian.38138: 63170 1/0/0 PTR live.github.com. (73)
	0x0000:  4500 0065 0000 4000 4011 b658 c0a8 0101  E..e..@.@..X....
	0x0010:  c0a8 01de 0035 94fa 0051 e82c f6c2 8180  .....5...Q.,....
	0x0020:  0001 0001 0000 0000 0238 3703 3235 3202  .........87.252.
	0x0030:  3330 0331 3932 0769 6e2d 6164 6472 0461  30.192.in-addr.a
	0x0040:  7270 6100 000c 0001 c00c 000c 0001 0000  rpa.............
	0x0050:  0e10 0011 046c 6976 6506 6769 7468 7562  .....live.github
	0x0060:  0363 6f6d 00                             .com.
04:39:13.548906 IP debian.55604 > 192.168.1.1.domain: 11118+ PTR? 189.202.194.173.in-addr.arpa. (46)
	0x0000:  4500 004a bdb0 4000 4011 f8c2 c0a8 01de  E..J..@.@.......
	0x0010:  c0a8 0101 d934 0035 0036 7c95 2b6e 0100  .....4.5.6|.+n..
	0x0020:  0001 0000 0000 0000 0331 3839 0332 3032  .........189.202
	0x0030:  0331 3934 0331 3733 0769 6e2d 6164 6472  .194.173.in-addr
	0x0040:  0461 7270 6100 000c 0001                 .arpa.....
04:39:13.564577 IP 192.168.1.1.domain > debian.55604: 11118 1/0/0 PTR pf-in-f189.1e100.net. (80)
	0x0000:  4500 006c 0000 4000 4011 b651 c0a8 0101  E..l..@.@..Q....
	0x0010:  c0a8 01de 0035 d934 0058 38d2 2b6e 8180  .....5.4.X8.+n..
	0x0020:  0001 0001 0000 0000 0331 3839 0332 3032  .........189.202
	0x0030:  0331 3934 0331 3733 0769 6e2d 6164 6472  .194.173.in-addr
	0x0040:  0461 7270 6100 000c 0001 c00c 000c 0001  .arpa...........
	0x0050:  0000 1c20 0016 0a70 662d 696e 2d66 3138  .......pf-in-f18
	0x0060:  3905 3165 3130 3003 6e65 7400            9.1e100.net.
04:39:13.564791 IP debian.36777 > 192.168.1.1.domain: 40126+ PTR? 189.28.125.74.in-addr.arpa. (44)
	0x0000:  4500 0048 bdb2 4000 4011 f8c2 c0a8 01de  E..H..@.@.......
	0x0010:  c0a8 0101 8fa9 0035 0034 2764 9cbe 0100  .......5.4'd....
	0x0020:  0001 0000 0000 0000 0331 3839 0232 3803  .........189.28.
	0x0030:  3132 3502 3734 0769 6e2d 6164 6472 0461  125.74.in-addr.a
	0x0040:  7270 6100 000c 0001                      rpa.....
04:39:13.577317 IP 192.168.1.1.domain > debian.36777: 40126 1/0/0 PTR pc-in-f189.1e100.net. (78)
	0x0000:  4500 006a 0000 4000 4011 b653 c0a8 0101  E..j..@.@..S....
	0x0010:  c0a8 01de 0035 8fa9 0056 e6a0 9cbe 8180  .....5...V......
	0x0020:  0001 0001 0000 0000 0331 3839 0232 3803  .........189.28.
	0x0030:  3132 3502 3734 0769 6e2d 6164 6472 0461  125.74.in-addr.a
	0x0040:  7270 6100 000c 0001 c00c 000c 0001 0000  rpa.............
	0x0050:  1c20 0016 0a70 632d 696e 2d66 3138 3905  .....pc-in-f189.
	0x0060:  3165 3130 3003 6e65 7400                 1e100.net.
04:39:13.577516 IP debian.54529 > 192.168.1.1.domain: 30016+ PTR? 1.1.168.192.in-addr.arpa. (42)
	0x0000:  4500 0046 bdb3 4000 4011 f8c3 c0a8 01de  E..F..@.@.......
	0x0010:  c0a8 0101 d501 0035 0032 a467 7540 0100  .......5.2.gu@..
	0x0020:  0001 0000 0000 0000 0131 0131 0331 3638  .........1.1.168
	0x0030:  0331 3932 0769 6e2d 6164 6472 0461 7270  .192.in-addr.arp
	0x0040:  6100 000c 0001                           a.....
04:39:13.590321 IP 192.168.1.1.domain > debian.54529: 30016 NXDomain 0/1/0 (119)
	0x0000:  4500 0093 0000 4000 4011 b62a c0a8 0101  E.....@.@..*....
	0x0010:  c0a8 01de 0035 d501 007f 5d43 7540 8183  .....5....]Cu@..
	0x0020:  0001 0000 0001 0000 0131 0131 0331 3638  .........1.1.168
	0x0030:  0331 3932 0769 6e2d 6164 6472 0461 7270  .192.in-addr.arp
	0x0040:  6100 000c 0001 c010 0006 0001 0000 005e  a..............^
	0x0050:  0041 0870 7269 736f 6e65 7204 6961 6e61  .A.prisoner.iana
	0x0060:  036f 7267 000a 686f 7374 6d61 7374 6572  .org..hostmaster
	0x0070:  0c72 6f6f 742d 7365 7276 6572 73c0 4477  .root-servers.Dw
	0x0080:  54b7 e000 0007 0800 0003 8400 093a 8000  T............:..
	0x0090:  093a 80                                  .:.
04:39:13.590509 IP debian.52377 > 192.168.1.1.domain: 15948+ PTR? 147.202.194.173.in-addr.arpa. (46)
	0x0000:  4500 004a bdb6 4000 4011 f8bc c0a8 01de  E..J..@.@.......
	0x0010:  c0a8 0101 cc99 0035 0036 7a54 3e4c 0100  .......5.6zT>L..
	0x0020:  0001 0000 0000 0000 0331 3437 0332 3032  .........147.202
	0x0030:  0331 3934 0331 3733 0769 6e2d 6164 6472  .194.173.in-addr
	0x0040:  0461 7270 6100 000c 0001                 .arpa.....
04:39:13.603089 IP 192.168.1.1.domain > debian.52377: 15948 1/0/0 PTR pf-in-f147.1e100.net. (80)
	0x0000:  4500 006c 0000 4000 4011 b651 c0a8 0101  E..l..@.@..Q....
	0x0010:  c0a8 01de 0035 cc99 0058 4275 3e4c 8180  .....5...XBu>L..
	0x0020:  0001 0001 0000 0000 0331 3437 0332 3032  .........147.202
	0x0030:  0331 3934 0331 3733 0769 6e2d 6164 6472  .194.173.in-addr
	0x0040:  0461 7270 6100 000c 0001 c00c 000c 0001  .arpa...........
	0x0050:  0000 1240 0016 0a70 662d 696e 2d66 3134  ...@...pf-in-f14
	0x0060:  3705 3165 3130 3003 6e65 7400            7.1e100.net.
04:39:13.603295 IP debian.54384 > 192.168.1.1.domain: 65008+ PTR? 25.163.229.192.in-addr.arpa. (45)
	0x0000:  4500 0049 bdb7 4000 4011 f8bc c0a8 01de  E..I..@.@.......
	0x0010:  c0a8 0101 d470 0035 0035 f1cb fdf0 0100  .....p.5.5......
	0x0020:  0001 0000 0000 0000 0232 3503 3136 3303  .........25.163.
	0x0030:  3232 3903 3139 3207 696e 2d61 6464 7204  229.192.in-addr.
	0x0040:  6172 7061 0000 0c00 01                   arpa.....
04:39:13.625074 IP 192.168.1.1.domain > debian.54384: 65008 NXDomain 0/1/0 (99)
	0x0000:  4500 007f 0000 4000 4011 b63e c0a8 0101  E.....@.@..>....
	0x0010:  c0a8 01de 0035 d470 006b e50a fdf0 8183  .....5.p.k......
	0x0020:  0001 0000 0001 0000 0232 3503 3136 3303  .........25.163.
	0x0030:  3232 3903 3139 3207 696e 2d61 6464 7204  229.192.in-addr.
	0x0040:  6172 7061 0000 0c00 01c0 1700 0600 0100  arpa............
	0x0050:  0007 0800 2a01 7a04 6172 696e 036e 6574  ....*.z.arin.net
	0x0060:  0007 646e 732d 6f70 73c0 3b78 2a33 a600  ..dns-ops.;x*3..
	0x0070:  0007 0800 0003 8400 0a8c 0000 002a 30    .............*0
04:39:13.625246 IP debian.55313 > 192.168.1.1.domain: 28672+ PTR? 237.3.217.172.in-addr.arpa. (44)
	0x0000:  4500 0048 bdb9 4000 4011 f8bb c0a8 01de  E..H..@.@.......
	0x0010:  c0a8 0101 d811 0035 0034 7859 7000 0100  .......5.4xYp...
	0x0020:  0001 0000 0000 0000 0332 3337 0133 0332  .........237.3.2
	0x0030:  3137 0331 3732 0769 6e2d 6164 6472 0461  17.172.in-addr.a
	0x0040:  7270 6100 000c 0001                      rpa.....
04:39:13.660080 IP 192.168.1.1.domain > debian.55313: 28672 1/0/0 PTR nuq05s01-in-f13.1e100.net. (83)
	0x0000:  4500 006f 0000 4000 4011 b64e c0a8 0101  E..o..@.@..N....
	0x0010:  c0a8 01de 0035 d811 005b f645 7000 8180  .....5...[.Ep...
	0x0020:  0001 0001 0000 0000 0332 3337 0133 0332  .........237.3.2
	0x0030:  3137 0331 3732 0769 6e2d 6164 6472 0461  17.172.in-addr.a
	0x0040:  7270 6100 000c 0001 c00c 000c 0001 0000  rpa.............
	0x0050:  1c20 001b 0f6e 7571 3035 7330 312d 696e  .....nuq05s01-in
	0x0060:  2d66 3133 0531 6531 3030 036e 6574 00    -f13.1e100.net.
04:39:14.226821 IP debian > pf-in-f147.1e100.net: ICMP echo request, id 11786, seq 2, length 64
	0x0000:  4500 0054 8f6e 4000 4001 705e c0a8 01de  E..T.n@.@.p^....
	0x0010:  adc2 ca93 0800 108a 2e0a 0002 62e0 4657  ............b.FW
	0x0020:  0000 0000 f675 0300 0000 0000 0123 4567  .....u.......#Eg
	0x0030:  89ab cdef 0123 4567 89ab cdef 0123 4567  .....#Eg.....#Eg
	0x0040:  89ab cdef 0123 4567 89ab cdef 0123 4567  .....#Eg.....#Eg
	0x0050:  89ab cdef                                ....
04:39:14.270460 IP pf-in-f147.1e100.net > debian: ICMP echo reply, id 11786, seq 2, length 64
	0x0000:  4500 0054 0000 0000 2b01 54cd adc2 ca93  E..T....+.T.....
	0x0010:  c0a8 01de 0000 188a 2e0a 0002 62e0 4657  ............b.FW
	0x0020:  0000 0000 f675 0300 0000 0000 0123 4567  .....u.......#Eg
	0x0030:  89ab cdef 0123 4567 89ab cdef 0123 4567  .....#Eg.....#Eg
	0x0040:  89ab cdef 0123 4567 89ab cdef 0123 4567  .....#Eg.....#Eg
	0x0050:  89ab cdef                                ....
04:39:14.296096 IP debian.55523 > 192.229.163.25.https: Flags [.], ack 3031853289, win 581, options [nop,nop,TS val 86783328 ecr 78822649], length 0
	0x0000:  4500 0034 5943 4000 4006 bafb c0a8 01de  E..4YC@.@.......
	0x0010:  c0e5 a319 d8e3 01bb 00b0 f3c1 b4b6 68e9  ..............h.
	0x0020:  8010 0245 650a 0000 0101 080a 052c 3560  ...Ee........,5`
	0x0030:  04b2 bcf9                                ....
04:39:14.310377 IP 192.229.163.25.https > debian.55523: Flags [.], ack 1, win 294, options [nop,nop,TS val 78833913 ecr 86749550], length 0
	0x0000:  4500 0034 7f3e 4000 3906 9c00 c0e5 a319  E..4.>@.9.......
	0x0010:  c0a8 01de 01bb d8e3 b4b6 68e9 00b0 f3c2  ..........h.....
	0x0020:  8010 0126 be1a 0000 0101 080a 04b2 e8f9  ...&............
	0x0030:  052b b16e                                .+.n
04:39:14.424048 IP debian.49089 > 199.16.157.105.https: Flags [.], ack 3915278799, win 391, options [nop,nop,TS val 86783360 ecr 2846599792], length 0
	0x0000:  4500 0034 7ec5 4000 4006 94fe c0a8 01de  E..4~.@.@.......
	0x0010:  c710 9d69 bfc1 01bb a044 b678 e95e 69cf  ...i.....D.x.^i.
	0x0020:  8010 0187 5405 0000 0101 080a 052c 3580  ....T........,5.
	0x0030:  a9ab aa70                                ...p
04:39:14.500625 IP 199.16.157.105.https > debian.49089: Flags [.], ack 1, win 164, options [nop,nop,TS val 2846644957 ecr 86749544], length 0
	0x0000:  4500 0034 bd0b 4000 2e06 68b8 c710 9d69  E..4..@...h....i
	0x0010:  c0a8 01de 01bb bfc1 e95e 69cf a044 b679  .........^i..D.y
	0x0020:  8010 00a4 2892 0000 0101 080a a9ac 5add  ....(.........Z.
	0x0030:  052b b168                                .+.h
04:39:14.500874 IP debian.37511 > 192.168.1.1.domain: 53842+ PTR? 200.194.58.216.in-addr.arpa. (45)
	0x0000:  4500 0049 be15 4000 4011 f85e c0a8 01de  E..I..@.@..^....
	0x0010:  c0a8 0101 9287 0035 0035 b6ff d252 0100  .......5.5...R..
	0x0020:  0001 0000 0000 0000 0332 3030 0331 3934  .........200.194
	0x0030:  0235 3803 3231 3607 696e 2d61 6464 7204  .58.216.in-addr.
	0x0040:  6172 7061 0000 0c00 01                   arpa.....
04:39:14.515394 IP 192.168.1.1.domain > debian.37511: 53842 1/0/0 PTR sfo03s01-in-f8.1e100.net. (83)
	0x0000:  4500 006f 0000 4000 4011 b64e c0a8 0101  E..o..@.@..N....
	0x0010:  c0a8 01de 0035 9287 005b 96c8 d252 8180  .....5...[...R..
	0x0020:  0001 0001 0000 0000 0332 3030 0331 3934  .........200.194
	0x0030:  0235 3803 3231 3607 696e 2d61 6464 7204  .58.216.in-addr.
	0x0040:  6172 7061 0000 0c00 01c0 0c00 0c00 0100  arpa............
	0x0050:  001c 2000 1a0e 7366 6f30 3373 3031 2d69  ......sfo03s01-i
	0x0060:  6e2d 6638 0531 6531 3030 036e 6574 00    n-f8.1e100.net.
04:39:14.515760 IP debian.35170 > 192.168.1.1.domain: 5969+ PTR? 105.157.16.199.in-addr.arpa. (45)
	0x0000:  4500 0049 be16 4000 4011 f85d c0a8 01de  E..I..@.@..]....
	0x0010:  c0a8 0101 8962 0035 0035 7f1b 1751 0100  .....b.5.5...Q..
	0x0020:  0001 0000 0000 0000 0331 3035 0331 3537  .........105.157
	0x0030:  0231 3603 3139 3907 696e 2d61 6464 7204  .16.199.in-addr.
	0x0040:  6172 7061 0000 0c00 01                   arpa.....
04:39:14.552483 IP 192.168.1.1.domain > debian.35170: 5969 NXDomain 0/1/0 (115)
	0x0000:  4500 008f 0000 4000 4011 b62e c0a8 0101  E.....@.@.......
	0x0010:  c0a8 01de 0035 8962 007b b099 1751 8183  .....5.b.{...Q..
	0x0020:  0001 0000 0001 0000 0331 3035 0331 3537  .........105.157
	0x0030:  0231 3603 3139 3907 696e 2d61 6464 7204  .16.199.in-addr.
	0x0040:  6172 7061 0000 0c00 01c0 1000 0600 0100  arpa............
	0x0050:  0000 3c00 3a03 6e73 3103 7033 3406 6479  ..<.:.ns1.p34.dy
	0x0060:  6e65 6374 036e 6574 0004 726f 6f74 0774  nect.net..root.t
	0x0070:  7769 7474 6572 0363 6f6d 0000 0000 0200  witter.com......
	0x0080:  000e 1000 0002 5800 093a 8000 0000 3c    ......X..:....<
04:39:15.070801 IP 192.168.1.13.50015 > 255.255.255.255.7423: UDP, length 173
	0x0000:  4500 00c9 0000 4000 4011 786f c0a8 010d  E.....@.@.xo....
	0x0010:  ffff ffff c35f 1cff 00b5 ec72 4b41 4e4e  ....._.....rKANN
	0x0020:  4f55 254e 0000 0000 00c0 ffd4 9a0f 1245  OU%N...........E
	0x0030:  5837 3030 3000 0000 0000 0000 0000 0052  X7000..........R
	0x0040:  3730 3030 0000 0000 0000 0000 0000 0000  7000............
	0x0050:  0000 0000 0000 0000 0000 0000 0000 0000  ................
	0x0060:  0000 0000 0000 0000 0000 0000 0000 0000  ................
	0x0070:  0000 0031 2e30 322e 3431 0000 0000 0000  ...1.02.41......
	0x0080:  0000 0000 0000 0000 0001 0000 0001 0000  ................
	0x0090:  0002 0000 0002 0000 0000 0000 0000 0000  ................
	0x00a0:  0000 0000 0000 0000 0000 0000 0000 0000  ................
	0x00b0:  0000 0000 0000 0000 0000 0000 0000 0000  ................
	0x00c0:  0000 0000 0000 0000 00                   .........
04:39:15.228577 IP debian > pf-in-f147.1e100.net: ICMP echo request, id 11786, seq 3, length 64
	0x0000:  4500 0054 8f7a 4000 4001 7052 c0a8 01de  E..T.z@.@.pR....
	0x0010:  adc2 ca93 0800 3682 2e0a 0003 63e0 4657  ......6.....c.FW
	0x0020:  0000 0000 cf7c 0300 0000 0000 0123 4567  .....|.......#Eg
	0x0030:  89ab cdef 0123 4567 89ab cdef 0123 4567  .....#Eg.....#Eg
	0x0040:  89ab cdef 0123 4567 89ab cdef 0123 4567  .....#Eg.....#Eg
	0x0050:  89ab cdef                                ....
04:39:15.273923 IP pf-in-f147.1e100.net > debian: ICMP echo reply, id 11786, seq 3, length 64
	0x0000:  4500 0054 0000 0000 2b01 54cd adc2 ca93  E..T....+.T.....
	0x0010:  c0a8 01de 0000 3e82 2e0a 0003 63e0 4657  ......>.....c.FW
	0x0020:  0000 0000 cf7c 0300 0000 0000 0123 4567  .....|.......#Eg
	0x0030:  89ab cdef 0123 4567 89ab cdef 0123 4567  .....#Eg.....#Eg
	0x0040:  89ab cdef 0123 4567 89ab cdef 0123 4567  .....#Eg.....#Eg
	0x0050:  89ab cdef                                ....
04:39:15.553832 IP debian.39610 > 192.168.1.1.domain: 47610+ PTR? 255.255.255.255.in-addr.arpa. (46)
	0x0000:  4500 004a be22 4000 4011 f850 c0a8 01de  E..J."@.@..P....
	0x0010:  c0a8 0101 9aba 0035 0036 307e b9fa 0100  .......5.60~....
	0x0020:  0001 0000 0000 0000 0332 3535 0332 3535  .........255.255
	0x0030:  0332 3535 0332 3535 0769 6e2d 6164 6472  .255.255.in-addr
	0x0040:  0461 7270 6100 000c 0001                 .arpa.....
04:39:15.564649 IP 192.168.1.1.domain > debian.39610: 47610 NXDomain 0/1/0 (114)
	0x0000:  4500 008e 0000 4000 4011 b62f c0a8 0101  E.....@.@../....
	0x0010:  c0a8 01de 0035 9aba 007a 8a60 b9fa 8183  .....5...z.`....
	0x0020:  0001 0000 0001 0000 0332 3535 0332 3535  .........255.255
	0x0030:  0332 3535 0332 3535 0769 6e2d 6164 6472  .255.255.in-addr
	0x0040:  0461 7270 6100 000c 0001 c01c 0006 0001  .arpa...........
	0x0050:  0000 00be 0038 0162 0f69 6e2d 6164 6472  .....8.b.in-addr
	0x0060:  2d73 6572 7665 7273 c024 056e 7374 6c64  -servers.$.nstld
	0x0070:  0469 616e 6103 6f72 6700 781b 956f 0000  .iana.org.x..o..
	0x0080:  0708 0000 0384 0009 3a80 0000 0e10       ........:.....
04:39:15.564829 IP debian.52554 > 192.168.1.1.domain: 50722+ PTR? 13.1.168.192.in-addr.arpa. (43)
	0x0000:  4500 0047 be24 4000 4011 f851 c0a8 01de  E..G.$@.@..Q....
	0x0010:  c0a8 0101 cd4a 0035 0033 67f9 c622 0100  .....J.5.3g.."..
	0x0020:  0001 0000 0000 0000 0231 3301 3103 3136  .........13.1.16
	0x0030:  3803 3139 3207 696e 2d61 6464 7204 6172  8.192.in-addr.ar
	0x0040:  7061 0000 0c00 01                        pa.....
04:39:15.577440 IP 192.168.1.1.domain > debian.52554: 50722 NXDomain 0/1/0 (120)
	0x0000:  4500 0094 0000 4000 4011 b629 c0a8 0101  E.....@.@..)....
	0x0010:  c0a8 01de 0035 cd4a 0080 5913 c622 8183  .....5.J..Y.."..
	0x0020:  0001 0000 0001 0000 0231 3301 3103 3136  .........13.1.16
	0x0030:  3803 3139 3207 696e 2d61 6464 7204 6172  8.192.in-addr.ar
	0x0040:  7061 0000 0c00 01c0 1100 0600 0100 0000  pa..............
	0x0050:  e500 4108 7072 6973 6f6e 6572 0469 616e  ..A.prisoner.ian
	0x0060:  6103 6f72 6700 0a68 6f73 746d 6173 7465  a.org..hostmaste
	0x0070:  720c 726f 6f74 2d73 6572 7665 7273 c045  r.root-servers.E
	0x0080:  7754 b7e0 0000 0708 0000 0384 0009 3a80  wT............:.
	0x0090:  0009 3a80                                ..:.
04:39:15.704119 IP debian.41218 > pc-in-f188.1e100.net.5228: Flags [.], ack 646483062, win 715, options [nop,nop,TS val 86783680 ecr 447991137], length 0
	0x0000:  4500 0034 a3d6 4000 4006 6d2e c0a8 01de  E..4..@.@.m.....
	0x0010:  4a7d 1cbc a102 146c 2a88 5473 2688 8c76  J}.....l*.Ts&..v
	0x0020:  8010 02cb 3ec9 0000 0101 080a 052c 36c0  ....>........,6.
	0x0030:  1ab3 cd61                                ...a
04:39:15.896147 IP 192.168.1.5.37391 > 255.255.255.255.7423: UDP, length 173
	0x0000:  4500 00c9 0000 4000 4011 7877 c0a8 0105  E.....@.@.xw....
	0x0010:  ffff ffff 920f 1cff 00b5 8925 4b41 4e4e  ...........%KANN
	0x0020:  4f55 254e 0000 0000 00a0 6391 4b18 9245  OU%N......c.K..E
	0x0030:  5837 3030 3000 0000 0000 0000 0000 0052  X7000..........R
	0x0040:  3730 3030 0000 0000 0000 0000 0000 0000  7000............
	0x0050:  0000 0000 0000 0000 0000 0000 0000 0000  ................
	0x0060:  0000 0000 0000 0000 0000 0000 0000 0000  ................
	0x0070:  0000 0031 2e30 322e 3431 0000 0000 0000  ...1.02.41......
	0x0080:  0000 0000 0000 0000 0001 0000 0001 0000  ................
	0x0090:  0002 0000 0002 0000 0000 0000 0000 0000  ................
	0x00a0:  0000 0000 0000 0000 0000 0000 0000 0000  ................
	0x00b0:  0000 0000 0000 0000 0000 0000 0000 0000  ................
	0x00c0:  0000 0000 0000 0000 00                   .........
04:39:16.230074 IP debian > pf-in-f147.1e100.net: ICMP echo request, id 11786, seq 4, length 64
	0x0000:  4500 0054 8fdd 4000 4001 6fef c0a8 01de  E..T..@.@.o.....
	0x0010:  adc2 ca93 0800 687b 2e0a 0004 64e0 4657  ......h{....d.FW
	0x0020:  0000 0000 9c82 0300 0000 0000 0123 4567  .............#Eg
	0x0030:  89ab cdef 0123 4567 89ab cdef 0123 4567  .....#Eg.....#Eg
	0x0040:  89ab cdef 0123 4567 89ab cdef 0123 4567  .....#Eg.....#Eg
	0x0050:  89ab cdef                                ....
04:39:16.273781 IP pf-in-f147.1e100.net > debian: ICMP echo reply, id 11786, seq 4, length 64
	0x0000:  4500 0054 0000 0000 2b01 54cd adc2 ca93  E..T....+.T.....
	0x0010:  c0a8 01de 0000 707b 2e0a 0004 64e0 4657  ......p{....d.FW
	0x0020:  0000 0000 9c82 0300 0000 0000 0123 4567  .............#Eg
	0x0030:  89ab cdef 0123 4567 89ab cdef 0123 4567  .....#Eg.....#Eg
	0x0040:  89ab cdef 0123 4567 89ab cdef 0123 4567  .....#Eg.....#Eg
	0x0050:  89ab cdef                                ....
04:39:16.578828 IP debian.37260 > 192.168.1.1.domain: 38068+ PTR? 188.28.125.74.in-addr.arpa. (44)
	0x0000:  4500 0048 be38 4000 4011 f83c c0a8 01de  E..H.8@.@..<....
	0x0010:  c0a8 0101 918c 0035 0034 2d8c 94b4 0100  .......5.4-.....
	0x0020:  0001 0000 0000 0000 0331 3838 0232 3803  .........188.28.
	0x0030:  3132 3502 3734 0769 6e2d 6164 6472 0461  125.74.in-addr.a
	0x0040:  7270 6100 000c 0001                      rpa.....
04:39:16.588702 IP 192.168.1.1.domain > debian.37260: 38068 1/0/0 PTR pc-in-f188.1e100.net. (78)
	0x0000:  4500 006a 0000 4000 4011 b653 c0a8 0101  E..j..@.@..S....
	0x0010:  c0a8 01de 0035 918c 0056 edc8 94b4 8180  .....5...V......
	0x0020:  0001 0001 0000 0000 0331 3838 0232 3803  .........188.28.
	0x0030:  3132 3502 3734 0769 6e2d 6164 6472 0461  125.74.in-addr.a
	0x0040:  7270 6100 000c 0001 c00c 000c 0001 0000  rpa.............
	0x0050:  1c20 0016 0a70 632d 696e 2d66 3138 3805  .....pc-in-f188.
	0x0060:  3165 3130 3003 6e65 7400                 1e100.net.
04:39:16.588888 IP debian.38535 > 192.168.1.1.domain: 23163+ PTR? 5.1.168.192.in-addr.arpa. (42)
	0x0000:  4500 0046 be3b 4000 4011 f83b c0a8 01de  E..F.;@.@..;....
	0x0010:  c0a8 0101 9687 0035 0032 fda2 5a7b 0100  .......5.2..Z{..
	0x0020:  0001 0000 0000 0000 0135 0131 0331 3638  .........5.1.168
	0x0030:  0331 3932 0769 6e2d 6164 6472 0461 7270  .192.in-addr.arp
	0x0040:  6100 000c 0001                           a.....
04:39:16.601625 IP 192.168.1.1.domain > debian.38535: 23163 NXDomain 0/1/0 (119)
	0x0000:  4500 0093 0000 4000 4011 b62a c0a8 0101  E.....@.@..*....
	0x0010:  c0a8 01de 0035 9687 007f b63f 5a7b 8183  .....5.....?Z{..
	0x0020:  0001 0000 0001 0000 0135 0131 0331 3638  .........5.1.168
	0x0030:  0331 3932 0769 6e2d 6164 6472 0461 7270  .192.in-addr.arp
	0x0040:  6100 000c 0001 c010 0006 0001 0000 009d  a...............
	0x0050:  0041 0870 7269 736f 6e65 7204 6961 6e61  .A.prisoner.iana
	0x0060:  036f 7267 000a 686f 7374 6d61 7374 6572  .org..hostmaster
	0x0070:  0c72 6f6f 742d 7365 7276 6572 73c0 4477  .root-servers.Dw
	0x0080:  54b7 e000 0007 0800 0003 8400 093a 8000  T............:..
	0x0090:  093a 80                                  .:.
04:39:17.231942 IP debian > pf-in-f147.1e100.net: ICMP echo request, id 11786, seq 5, length 64
	0x0000:  4500 0054 908c 4000 4001 6f40 c0a8 01de  E..T..@.@.o@....
	0x0010:  adc2 ca93 0800 1573 2e0a 0005 65e0 4657  .......s....e.FW
	0x0020:  0000 0000 ee89 0300 0000 0000 0123 4567  .............#Eg
	0x0030:  89ab cdef 0123 4567 89ab cdef 0123 4567  .....#Eg.....#Eg
	0x0040:  89ab cdef 0123 4567 89ab cdef 0123 4567  .....#Eg.....#Eg
	0x0050:  89ab cdef                                ....
04:39:17.275835 IP pf-in-f147.1e100.net > debian: ICMP echo reply, id 11786, seq 5, length 64
	0x0000:  4500 0054 0000 0000 2b01 54cd adc2 ca93  E..T....+.T.....
	0x0010:  c0a8 01de 0000 1d73 2e0a 0005 65e0 4657  .......s....e.FW
	0x0020:  0000 0000 ee89 0300 0000 0000 0123 4567  .............#Eg
	0x0030:  89ab cdef 0123 4567 89ab cdef 0123 4567  .....#Eg.....#Eg
	0x0040:  89ab cdef 0123 4567 89ab cdef 0123 4567  .....#Eg.....#Eg
	0x0050:  89ab cdef                                ....

